{
  "_format": "hh-sol-artifact-1",
  "contractName": "MyEpicGame",
  "sourceName": "contracts/MyEpicGame.sol",
  "abi": [
    {
      "inputs": [
        {
          "internalType": "string[]",
          "name": "characterNames",
          "type": "string[]"
        },
        {
          "internalType": "string[]",
          "name": "characterImageURIs",
          "type": "string[]"
        },
        {
          "internalType": "uint256[]",
          "name": "characterHp",
          "type": "uint256[]"
        },
        {
          "internalType": "uint256[]",
          "name": "characterAttackDmg",
          "type": "uint256[]"
        },
        {
          "internalType": "string",
          "name": "bossName",
          "type": "string"
        },
        {
          "internalType": "string",
          "name": "bossImageURI",
          "type": "string"
        },
        {
          "internalType": "uint256",
          "name": "bossHp",
          "type": "uint256"
        },
        {
          "internalType": "uint256",
          "name": "bossAttackDamage",
          "type": "uint256"
        }
      ],
      "stateMutability": "nonpayable",
      "type": "constructor"
    },
    {
      "anonymous": false,
      "inputs": [
        {
          "indexed": true,
          "internalType": "address",
          "name": "owner",
          "type": "address"
        },
        {
          "indexed": true,
          "internalType": "address",
          "name": "approved",
          "type": "address"
        },
        {
          "indexed": true,
          "internalType": "uint256",
          "name": "tokenId",
          "type": "uint256"
        }
      ],
      "name": "Approval",
      "type": "event"
    },
    {
      "anonymous": false,
      "inputs": [
        {
          "indexed": true,
          "internalType": "address",
          "name": "owner",
          "type": "address"
        },
        {
          "indexed": true,
          "internalType": "address",
          "name": "operator",
          "type": "address"
        },
        {
          "indexed": false,
          "internalType": "bool",
          "name": "approved",
          "type": "bool"
        }
      ],
      "name": "ApprovalForAll",
      "type": "event"
    },
    {
      "anonymous": false,
      "inputs": [
        {
          "indexed": true,
          "internalType": "address",
          "name": "from",
          "type": "address"
        },
        {
          "indexed": true,
          "internalType": "address",
          "name": "to",
          "type": "address"
        },
        {
          "indexed": true,
          "internalType": "uint256",
          "name": "tokenId",
          "type": "uint256"
        }
      ],
      "name": "Transfer",
      "type": "event"
    },
    {
      "inputs": [
        {
          "internalType": "address",
          "name": "to",
          "type": "address"
        },
        {
          "internalType": "uint256",
          "name": "tokenId",
          "type": "uint256"
        }
      ],
      "name": "approve",
      "outputs": [],
      "stateMutability": "nonpayable",
      "type": "function"
    },
    {
      "inputs": [],
      "name": "attackBoss",
      "outputs": [],
      "stateMutability": "nonpayable",
      "type": "function"
    },
    {
      "inputs": [
        {
          "internalType": "address",
          "name": "owner",
          "type": "address"
        }
      ],
      "name": "balanceOf",
      "outputs": [
        {
          "internalType": "uint256",
          "name": "",
          "type": "uint256"
        }
      ],
      "stateMutability": "view",
      "type": "function"
    },
    {
      "inputs": [],
      "name": "bigBoss",
      "outputs": [
        {
          "internalType": "string",
          "name": "name",
          "type": "string"
        },
        {
          "internalType": "string",
          "name": "imageURI",
          "type": "string"
        },
        {
          "internalType": "uint256",
          "name": "hp",
          "type": "uint256"
        },
        {
          "internalType": "uint256",
          "name": "maxHp",
          "type": "uint256"
        },
        {
          "internalType": "uint256",
          "name": "attackDamage",
          "type": "uint256"
        }
      ],
      "stateMutability": "view",
      "type": "function"
    },
    {
      "inputs": [
        {
          "internalType": "uint256",
          "name": "tokenId",
          "type": "uint256"
        }
      ],
      "name": "getApproved",
      "outputs": [
        {
          "internalType": "address",
          "name": "",
          "type": "address"
        }
      ],
      "stateMutability": "view",
      "type": "function"
    },
    {
      "inputs": [
        {
          "internalType": "address",
          "name": "owner",
          "type": "address"
        },
        {
          "internalType": "address",
          "name": "operator",
          "type": "address"
        }
      ],
      "name": "isApprovedForAll",
      "outputs": [
        {
          "internalType": "bool",
          "name": "",
          "type": "bool"
        }
      ],
      "stateMutability": "view",
      "type": "function"
    },
    {
      "inputs": [
        {
          "internalType": "uint256",
          "name": "_characterIndex",
          "type": "uint256"
        }
      ],
      "name": "mintCharacterNFT",
      "outputs": [],
      "stateMutability": "nonpayable",
      "type": "function"
    },
    {
      "inputs": [],
      "name": "name",
      "outputs": [
        {
          "internalType": "string",
          "name": "",
          "type": "string"
        }
      ],
      "stateMutability": "view",
      "type": "function"
    },
    {
      "inputs": [
        {
          "internalType": "uint256",
          "name": "",
          "type": "uint256"
        }
      ],
      "name": "nftHolderAttributes",
      "outputs": [
        {
          "internalType": "uint256",
          "name": "characterIndex",
          "type": "uint256"
        },
        {
          "internalType": "string",
          "name": "name",
          "type": "string"
        },
        {
          "internalType": "string",
          "name": "imageURI",
          "type": "string"
        },
        {
          "internalType": "uint256",
          "name": "hp",
          "type": "uint256"
        },
        {
          "internalType": "uint256",
          "name": "maxHp",
          "type": "uint256"
        },
        {
          "internalType": "uint256",
          "name": "attackDamage",
          "type": "uint256"
        }
      ],
      "stateMutability": "view",
      "type": "function"
    },
    {
      "inputs": [
        {
          "internalType": "address",
          "name": "",
          "type": "address"
        }
      ],
      "name": "nftHolders",
      "outputs": [
        {
          "internalType": "uint256",
          "name": "",
          "type": "uint256"
        }
      ],
      "stateMutability": "view",
      "type": "function"
    },
    {
      "inputs": [
        {
          "internalType": "uint256",
          "name": "tokenId",
          "type": "uint256"
        }
      ],
      "name": "ownerOf",
      "outputs": [
        {
          "internalType": "address",
          "name": "",
          "type": "address"
        }
      ],
      "stateMutability": "view",
      "type": "function"
    },
    {
      "inputs": [
        {
          "internalType": "address",
          "name": "from",
          "type": "address"
        },
        {
          "internalType": "address",
          "name": "to",
          "type": "address"
        },
        {
          "internalType": "uint256",
          "name": "tokenId",
          "type": "uint256"
        }
      ],
      "name": "safeTransferFrom",
      "outputs": [],
      "stateMutability": "nonpayable",
      "type": "function"
    },
    {
      "inputs": [
        {
          "internalType": "address",
          "name": "from",
          "type": "address"
        },
        {
          "internalType": "address",
          "name": "to",
          "type": "address"
        },
        {
          "internalType": "uint256",
          "name": "tokenId",
          "type": "uint256"
        },
        {
          "internalType": "bytes",
          "name": "data",
          "type": "bytes"
        }
      ],
      "name": "safeTransferFrom",
      "outputs": [],
      "stateMutability": "nonpayable",
      "type": "function"
    },
    {
      "inputs": [
        {
          "internalType": "address",
          "name": "operator",
          "type": "address"
        },
        {
          "internalType": "bool",
          "name": "approved",
          "type": "bool"
        }
      ],
      "name": "setApprovalForAll",
      "outputs": [],
      "stateMutability": "nonpayable",
      "type": "function"
    },
    {
      "inputs": [
        {
          "internalType": "bytes4",
          "name": "interfaceId",
          "type": "bytes4"
        }
      ],
      "name": "supportsInterface",
      "outputs": [
        {
          "internalType": "bool",
          "name": "",
          "type": "bool"
        }
      ],
      "stateMutability": "view",
      "type": "function"
    },
    {
      "inputs": [],
      "name": "symbol",
      "outputs": [
        {
          "internalType": "string",
          "name": "",
          "type": "string"
        }
      ],
      "stateMutability": "view",
      "type": "function"
    },
    {
      "inputs": [
        {
          "internalType": "uint256",
          "name": "_tokenId",
          "type": "uint256"
        }
      ],
      "name": "tokenURI",
      "outputs": [
        {
          "internalType": "string",
          "name": "",
          "type": "string"
        }
      ],
      "stateMutability": "view",
      "type": "function"
    },
    {
      "inputs": [
        {
          "internalType": "address",
          "name": "from",
          "type": "address"
        },
        {
          "internalType": "address",
          "name": "to",
          "type": "address"
        },
        {
          "internalType": "uint256",
          "name": "tokenId",
          "type": "uint256"
        }
      ],
      "name": "transferFrom",
      "outputs": [],
      "stateMutability": "nonpayable",
      "type": "function"
    }
  ],
  "bytecode": "0x608060405260006006553480156200001657600080fd5b50604051620058d2380380620058d283398181016040528101906200003c919062000a90565b6040518060400160405280600681526020017f4865726f657300000000000000000000000000000000000000000000000000008152506040518060400160405280600481526020017f4845524f000000000000000000000000000000000000000000000000000000008152508160009081620000b9919062000e54565b508060019081620000cb919062000e54565b5050506040518060a0016040528085815260200184815260200183815260200183815260200182815250600a60008201518160000190816200010e919062000e54565b50602082015181600101908162000126919062000e54565b50604082015181600201556060820151816003015560808201518160040155905050620002a96040518060600160405280602a8152602001620058a8602a9139600a6000018054620001789062000c4d565b80601f0160208091040260200160405190810160405280929190818152602001828054620001a69062000c4d565b8015620001f75780601f10620001cb57610100808354040283529160200191620001f7565b820191906000526020600020905b815481529060010190602001808311620001d957829003601f168201915b5050505050600a60020154600a6001018054620002149062000c4d565b80601f0160208091040260200160405190810160405280929190818152602001828054620002429062000c4d565b8015620002935780601f10620002675761010080835404028352916020019162000293565b820191906000526020600020905b8154815290600101906020018083116200027557829003601f168201915b50505050506200060560201b62001ac01760201c565b60005b8851811015620005df5760086040518060c001604052808381526020018b8481518110620002df57620002de62000f3b565b5b602002602001015181526020018a848151811062000302576200030162000f3b565b5b6020026020010151815260200189848151811062000325576200032462000f3b565b5b6020026020010151815260200189848151811062000348576200034762000f3b565b5b602002602001015181526020018884815181106200036b576200036a62000f3b565b5b60200260200101518152509080600181540180825580915050600190039060005260206000209060060201600090919091909150600082015181600001556020820151816001019081620003c0919062000e54565b506040820151816002019081620003d8919062000e54565b50606082015181600301556080820151816004015560a08201518160050155505060006008828154811062000412576200041162000f3b565b5b90600052602060002090600602016040518060c001604052908160008201548152602001600182018054620004479062000c4d565b80601f0160208091040260200160405190810160405280929190818152602001828054620004759062000c4d565b8015620004c65780601f106200049a57610100808354040283529160200191620004c6565b820191906000526020600020905b815481529060010190602001808311620004a857829003601f168201915b50505050508152602001600282018054620004e19062000c4d565b80601f01602080910402602001604051908101604052809291908181526020018280546200050f9062000c4d565b8015620005605780601f10620005345761010080835404028352916020019162000560565b820191906000526020600020905b8154815290600101906020018083116200054257829003601f168201915b5050505050815260200160038201548152602001600482015481526020016005820154815250509050620005c760405180606001604052806025815260200162005883602591398260200151836060015184604001516200060560201b62001ac01760201c565b50600181620005d7919062000f99565b9050620002ac565b50620005f76007620006b160201b62001b621760201c565b505050505050505062001099565b620006ab8484848460405160240162000622949392919062001037565b6040516020818303038152906040527f5d1a971a000000000000000000000000000000000000000000000000000000007bffffffffffffffffffffffffffffffffffffffffffffffffffffffff19166020820180517bffffffffffffffffffffffffffffffffffffffffffffffffffffffff8381831617835250505050620006c760201b60201c565b50505050565b6001816000016000828254019250508190555050565b60008151905060006a636f6e736f6c652e6c6f679050602083016000808483855afa5050505050565b6000604051905090565b600080fd5b600080fd5b600080fd5b6000601f19601f8301169050919050565b7f4e487b7100000000000000000000000000000000000000000000000000000000600052604160045260246000fd5b620007548262000709565b810181811067ffffffffffffffff821117156200077657620007756200071a565b5b80604052505050565b60006200078b620006f0565b905062000799828262000749565b919050565b600067ffffffffffffffff821115620007bc57620007bb6200071a565b5b602082029050602081019050919050565b600080fd5b600080fd5b600067ffffffffffffffff821115620007f557620007f46200071a565b5b620008008262000709565b9050602081019050919050565b60005b838110156200082d57808201518184015260208101905062000810565b60008484015250505050565b6000620008506200084a84620007d7565b6200077f565b9050828152602081018484840111156200086f576200086e620007d2565b5b6200087c8482856200080d565b509392505050565b600082601f8301126200089c576200089b62000704565b5b8151620008ae84826020860162000839565b91505092915050565b6000620008ce620008c8846200079e565b6200077f565b90508083825260208201905060208402830185811115620008f457620008f3620007cd565b5b835b818110156200094257805167ffffffffffffffff8111156200091d576200091c62000704565b5b8086016200092c898262000884565b85526020850194505050602081019050620008f6565b5050509392505050565b600082601f83011262000964576200096362000704565b5b815162000976848260208601620008b7565b91505092915050565b600067ffffffffffffffff8211156200099d576200099c6200071a565b5b602082029050602081019050919050565b6000819050919050565b620009c381620009ae565b8114620009cf57600080fd5b50565b600081519050620009e381620009b8565b92915050565b600062000a00620009fa846200097f565b6200077f565b9050808382526020820190506020840283018581111562000a265762000a25620007cd565b5b835b8181101562000a53578062000a3e8882620009d2565b84526020840193505060208101905062000a28565b5050509392505050565b600082601f83011262000a755762000a7462000704565b5b815162000a87848260208601620009e9565b91505092915050565b600080600080600080600080610100898b03121562000ab45762000ab3620006fa565b5b600089015167ffffffffffffffff81111562000ad55762000ad4620006ff565b5b62000ae38b828c016200094c565b985050602089015167ffffffffffffffff81111562000b075762000b06620006ff565b5b62000b158b828c016200094c565b975050604089015167ffffffffffffffff81111562000b395762000b38620006ff565b5b62000b478b828c0162000a5d565b965050606089015167ffffffffffffffff81111562000b6b5762000b6a620006ff565b5b62000b798b828c0162000a5d565b955050608089015167ffffffffffffffff81111562000b9d5762000b9c620006ff565b5b62000bab8b828c0162000884565b94505060a089015167ffffffffffffffff81111562000bcf5762000bce620006ff565b5b62000bdd8b828c0162000884565b93505060c062000bf08b828c01620009d2565b92505060e062000c038b828c01620009d2565b9150509295985092959890939650565b600081519050919050565b7f4e487b7100000000000000000000000000000000000000000000000000000000600052602260045260246000fd5b6000600282049050600182168062000c6657607f821691505b60208210810362000c7c5762000c7b62000c1e565b5b50919050565b60008190508160005260206000209050919050565b60006020601f8301049050919050565b600082821b905092915050565b60006008830262000ce67fffffffffffffffffffffffffffffffffffffffffffffffffffffffffffffffff8262000ca7565b62000cf2868362000ca7565b95508019841693508086168417925050509392505050565b6000819050919050565b600062000d3562000d2f62000d2984620009ae565b62000d0a565b620009ae565b9050919050565b6000819050919050565b62000d518362000d14565b62000d6962000d608262000d3c565b84845462000cb4565b825550505050565b600090565b62000d8062000d71565b62000d8d81848462000d46565b505050565b5b8181101562000db55762000da960008262000d76565b60018101905062000d93565b5050565b601f82111562000e045762000dce8162000c82565b62000dd98462000c97565b8101602085101562000de9578190505b62000e0162000df88562000c97565b83018262000d92565b50505b505050565b600082821c905092915050565b600062000e296000198460080262000e09565b1980831691505092915050565b600062000e44838362000e16565b9150826002028217905092915050565b62000e5f8262000c13565b67ffffffffffffffff81111562000e7b5762000e7a6200071a565b5b62000e87825462000c4d565b62000e9482828562000db9565b600060209050601f83116001811462000ecc576000841562000eb7578287015190505b62000ec3858262000e36565b86555062000f33565b601f19841662000edc8662000c82565b60005b8281101562000f065784890151825560018201915060208501945060208101905062000edf565b8683101562000f26578489015162000f22601f89168262000e16565b8355505b6001600288020188555050505b505050505050565b7f4e487b7100000000000000000000000000000000000000000000000000000000600052603260045260246000fd5b7f4e487b7100000000000000000000000000000000000000000000000000000000600052601160045260246000fd5b600062000fa682620009ae565b915062000fb383620009ae565b925082820190508082111562000fce5762000fcd62000f6a565b5b92915050565b600082825260208201905092915050565b600062000ff28262000c13565b62000ffe818562000fd4565b9350620010108185602086016200080d565b6200101b8162000709565b840191505092915050565b6200103181620009ae565b82525050565b6000608082019050818103600083015262001053818762000fe5565b9050818103602083015262001069818662000fe5565b90506200107a604083018562001026565b81810360608301526200108e818462000fe5565b905095945050505050565b6147da80620010a96000396000f3fe608060405234801561001057600080fd5b50600436106101165760003560e01c806395d89b41116100a2578063b88d4fde11610071578063b88d4fde1461030e578063c87b56dd1461032a578063d4f24c5b1461035a578063e985e9c514610364578063f8b81ef71461039457610116565b806395d89b411461027d57806398da4c951461029b578063a22cb465146102d0578063a9c32679146102ec57610116565b806323b872dd116100e957806323b872dd146101b557806342842e0e146101d15780636352211e146101ed57806370a082311461021d5780637df124a11461024d57610116565b806301ffc9a71461011b57806306fdde031461014b578063081812fc14610169578063095ea7b314610199575b600080fd5b61013560048036038101906101309190612dcd565b6103b0565b6040516101429190612e15565b60405180910390f35b610153610492565b6040516101609190612ec0565b60405180910390f35b610183600480360381019061017e9190612f18565b610524565b6040516101909190612f86565b60405180910390f35b6101b360048036038101906101ae9190612fcd565b61056a565b005b6101cf60048036038101906101ca919061300d565b610681565b005b6101eb60048036038101906101e6919061300d565b6106e1565b005b61020760048036038101906102029190612f18565b610701565b6040516102149190612f86565b60405180910390f35b61023760048036038101906102329190613060565b6107b2565b604051610244919061309c565b60405180910390f35b61026760048036038101906102629190613060565b610869565b604051610274919061309c565b60405180910390f35b610285610881565b6040516102929190612ec0565b60405180910390f35b6102b560048036038101906102b09190612f18565b610913565b6040516102c7969594939291906130b7565b60405180910390f35b6102ea60048036038101906102e59190613152565b610a5f565b005b6102f4610a75565b604051610305959493929190613192565b60405180910390f35b61032860048036038101906103239190613328565b610ba9565b005b610344600480360381019061033f9190612f18565b610c0b565b6040516103519190612ec0565b60405180910390f35b610362610e26565b005b61037e600480360381019061037991906133ab565b61173f565b60405161038b9190612e15565b60405180910390f35b6103ae60048036038101906103a99190612f18565b6117d3565b005b60007f80ac58cd000000000000000000000000000000000000000000000000000000007bffffffffffffffffffffffffffffffffffffffffffffffffffffffff1916827bffffffffffffffffffffffffffffffffffffffffffffffffffffffff1916148061047b57507f5b5e139f000000000000000000000000000000000000000000000000000000007bffffffffffffffffffffffffffffffffffffffffffffffffffffffff1916827bffffffffffffffffffffffffffffffffffffffffffffffffffffffff1916145b8061048b575061048a82611b78565b5b9050919050565b6060600080546104a19061341a565b80601f01602080910402602001604051908101604052809291908181526020018280546104cd9061341a565b801561051a5780601f106104ef5761010080835404028352916020019161051a565b820191906000526020600020905b8154815290600101906020018083116104fd57829003601f168201915b5050505050905090565b600061052f82611be2565b6004600083815260200190815260200160002060009054906101000a900473ffffffffffffffffffffffffffffffffffffffff169050919050565b600061057582610701565b90508073ffffffffffffffffffffffffffffffffffffffff168373ffffffffffffffffffffffffffffffffffffffff16036105e5576040517f08c379a00000000000000000000000000000000000000000000000000000000081526004016105dc906134bd565b60405180910390fd5b8073ffffffffffffffffffffffffffffffffffffffff16610604611c2d565b73ffffffffffffffffffffffffffffffffffffffff16148061063357506106328161062d611c2d565b61173f565b5b610672576040517f08c379a00000000000000000000000000000000000000000000000000000000081526004016106699061354f565b60405180910390fd5b61067c8383611c35565b505050565b61069261068c611c2d565b82611cee565b6106d1576040517f08c379a00000000000000000000000000000000000000000000000000000000081526004016106c8906135e1565b60405180910390fd5b6106dc838383611d83565b505050565b6106fc83838360405180602001604052806000815250610ba9565b505050565b6000806002600084815260200190815260200160002060009054906101000a900473ffffffffffffffffffffffffffffffffffffffff169050600073ffffffffffffffffffffffffffffffffffffffff168173ffffffffffffffffffffffffffffffffffffffff16036107a9576040517f08c379a00000000000000000000000000000000000000000000000000000000081526004016107a09061364d565b60405180910390fd5b80915050919050565b60008073ffffffffffffffffffffffffffffffffffffffff168273ffffffffffffffffffffffffffffffffffffffff1603610822576040517f08c379a0000000000000000000000000000000000000000000000000000000008152600401610819906136df565b60405180910390fd5b600360008373ffffffffffffffffffffffffffffffffffffffff1673ffffffffffffffffffffffffffffffffffffffff168152602001908152602001600020549050919050565b600f6020528060005260406000206000915090505481565b6060600180546108909061341a565b80601f01602080910402602001604051908101604052809291908181526020018280546108bc9061341a565b80156109095780601f106108de57610100808354040283529160200191610909565b820191906000526020600020905b8154815290600101906020018083116108ec57829003601f168201915b5050505050905090565b600960205280600052604060002060009150905080600001549080600101805461093c9061341a565b80601f01602080910402602001604051908101604052809291908181526020018280546109689061341a565b80156109b55780601f1061098a576101008083540402835291602001916109b5565b820191906000526020600020905b81548152906001019060200180831161099857829003601f168201915b5050505050908060020180546109ca9061341a565b80601f01602080910402602001604051908101604052809291908181526020018280546109f69061341a565b8015610a435780601f10610a1857610100808354040283529160200191610a43565b820191906000526020600020905b815481529060010190602001808311610a2657829003601f168201915b5050505050908060030154908060040154908060050154905086565b610a71610a6a611c2d565b8383611fe9565b5050565b600a806000018054610a869061341a565b80601f0160208091040260200160405190810160405280929190818152602001828054610ab29061341a565b8015610aff5780601f10610ad457610100808354040283529160200191610aff565b820191906000526020600020905b815481529060010190602001808311610ae257829003601f168201915b505050505090806001018054610b149061341a565b80601f0160208091040260200160405190810160405280929190818152602001828054610b409061341a565b8015610b8d5780601f10610b6257610100808354040283529160200191610b8d565b820191906000526020600020905b815481529060010190602001808311610b7057829003601f168201915b5050505050908060020154908060030154908060040154905085565b610bba610bb4611c2d565b83611cee565b610bf9576040517f08c379a0000000000000000000000000000000000000000000000000000000008152600401610bf0906135e1565b60405180910390fd5b610c0584848484612155565b50505050565b60606000600960008481526020019081526020016000206040518060c001604052908160008201548152602001600182018054610c479061341a565b80601f0160208091040260200160405190810160405280929190818152602001828054610c739061341a565b8015610cc05780601f10610c9557610100808354040283529160200191610cc0565b820191906000526020600020905b815481529060010190602001808311610ca357829003601f168201915b50505050508152602001600282018054610cd99061341a565b80601f0160208091040260200160405190810160405280929190818152602001828054610d059061341a565b8015610d525780601f10610d2757610100808354040283529160200191610d52565b820191906000526020600020905b815481529060010190602001808311610d3557829003601f168201915b50505050508152602001600382015481526020016004820154815260200160058201548152505090506000610d8a82606001516121b1565b90506000610d9b83608001516121b1565b90506000610dac8460a001516121b1565b90506000610df28560200151610dc1896121b1565b8760400151878787604051602001610dde96959493929190613a0d565b604051602081830303815290604052612311565b9050600081604051602001610e079190613afe565b6040516020818303038152906040529050809650505050505050919050565b6000600f60003373ffffffffffffffffffffffffffffffffffffffff1673ffffffffffffffffffffffffffffffffffffffff1681526020019081526020016000205490506000600960008381526020019081526020016000209050610f396040518060600160405280603c8152602001614769603c9139826001018054610eac9061341a565b80601f0160208091040260200160405190810160405280929190818152602001828054610ed89061341a565b8015610f255780601f10610efa57610100808354040283529160200191610f25565b820191906000526020600020905b815481529060010190602001808311610f0857829003601f168201915b5050505050836003015484600501546124a8565b6110116040518060400160405280601b81526020017f426f73732025732068617320257320485020616e642025732041440000000000815250600a6000018054610f829061341a565b80601f0160208091040260200160405190810160405280929190818152602001828054610fae9061341a565b8015610ffb5780601f10610fd057610100808354040283529160200191610ffb565b820191906000526020600020905b815481529060010190602001808311610fde57829003601f168201915b5050505050600a60020154600a600401546124a8565b6000816003015411611058576040517f08c379a000000000000000000000000000000000000000000000000000000000815260040161104f90613b92565b60405180910390fd5b6000600a60020154116110a0576040517f08c379a000000000000000000000000000000000000000000000000000000000815260040161109790613c24565b60405180910390fd5b6111f96040518060400160405280601281526020017f2573207377696e67732061742025732e2e2e00000000000000000000000000008152508260010180546110e89061341a565b80601f01602080910402602001604051908101604052809291908181526020018280546111149061341a565b80156111615780601f1061113657610100808354040283529160200191611161565b820191906000526020600020905b81548152906001019060200180831161114457829003601f168201915b5050505050600a60000180546111769061341a565b80601f01602080910402602001604051908101604052809291908181526020018280546111a29061341a565b80156111ef5780601f106111c4576101008083540402835291602001916111ef565b820191906000526020600020905b8154815290600101906020018083116111d257829003601f168201915b505050505061254a565b8060050154600a600201541015611258576000600a600201819055506112536040518060400160405280601181526020017f54686520626f73732069732064656164210000000000000000000000000000008152506125e9565b61140e565b6005611264600a612682565b1115611341578060050154600a6002015461127f9190613c73565b600a6002018190555061133c6040518060600160405280602181526020016146da602191398260010180546112b39061341a565b80601f01602080910402602001604051908101604052809291908181526020018280546112df9061341a565b801561132c5780601f106113015761010080835404028352916020019161132c565b820191906000526020600020905b81548152906001019060200180831161130f57829003601f168201915b5050505050600a600201546126de565b61140d565b61140c6040518060400160405280600b81526020017f2573206d6973736564210a0000000000000000000000000000000000000000008152508260010180546113899061341a565b80601f01602080910402602001604051908101604052809291908181526020018280546113b59061341a565b80156114025780601f106113d757610100808354040283529160200191611402565b820191906000526020600020905b8154815290600101906020018083116113e557829003601f168201915b505050505061277d565b5b5b6115676040518060400160405280601381526020017f2573207377696e67732061742025732e2e2e2e000000000000000000000000008152508260010180546114569061341a565b80601f01602080910402602001604051908101604052809291908181526020018280546114829061341a565b80156114cf5780601f106114a4576101008083540402835291602001916114cf565b820191906000526020600020905b8154815290600101906020018083116114b257829003601f168201915b5050505050600a60000180546114e49061341a565b80601f01602080910402602001604051908101604052809291908181526020018280546115109061341a565b801561155d5780601f106115325761010080835404028352916020019161155d565b820191906000526020600020905b81548152906001019060200180831161154057829003601f168201915b505050505061254a565b600a6004015481600301541015611587576000816003018190555061173b565b6005611593600a612682565b111561166e57600a6004015481600301546115ae9190613c73565b81600301819055506116696040518060600160405280602181526020016146da602191398260010180546115e19061341a565b80601f016020809104026020016040519081016040528092919081815260200182805461160d9061341a565b801561165a5780601f1061162f5761010080835404028352916020019161165a565b820191906000526020600020905b81548152906001019060200180831161163d57829003601f168201915b505050505083600301546126de565b61173a565b6117396040518060400160405280600b81526020017f2573206d6973736564210a0000000000000000000000000000000000000000008152508260010180546116b69061341a565b80601f01602080910402602001604051908101604052809291908181526020018280546116e29061341a565b801561172f5780601f106117045761010080835404028352916020019161172f565b820191906000526020600020905b81548152906001019060200180831161171257829003601f168201915b505050505061277d565b5b5b5050565b6000600560008473ffffffffffffffffffffffffffffffffffffffff1673ffffffffffffffffffffffffffffffffffffffff16815260200190815260200160002060008373ffffffffffffffffffffffffffffffffffffffff1673ffffffffffffffffffffffffffffffffffffffff16815260200190815260200160002060009054906101000a900460ff16905092915050565b60006117df6007612819565b90506117eb3382612827565b6040518060c00160405280838152602001600884815481106118105761180f613ca7565b5b9060005260206000209060060201600101805461182c9061341a565b80601f01602080910402602001604051908101604052809291908181526020018280546118589061341a565b80156118a55780601f1061187a576101008083540402835291602001916118a5565b820191906000526020600020905b81548152906001019060200180831161188857829003601f168201915b50505050508152602001600884815481106118c3576118c2613ca7565b5b906000526020600020906006020160020180546118df9061341a565b80601f016020809104026020016040519081016040528092919081815260200182805461190b9061341a565b80156119585780601f1061192d57610100808354040283529160200191611958565b820191906000526020600020905b81548152906001019060200180831161193b57829003601f168201915b505050505081526020016008848154811061197657611975613ca7565b5b9060005260206000209060060201600301548152602001600884815481106119a1576119a0613ca7565b5b9060005260206000209060060201600401548152602001600884815481106119cc576119cb613ca7565b5b90600052602060002090600602016005015481525060096000838152602001908152602001600020600082015181600001556020820151816001019081611a139190613e82565b506040820151816002019081611a299190613e82565b50606082015181600301556080820151816004015560a08201518160050155905050611a6e6040518060600160405280602e815260200161473b602e91398284612845565b80600f60003373ffffffffffffffffffffffffffffffffffffffff1673ffffffffffffffffffffffffffffffffffffffff16815260200190815260200160002081905550611abc6007611b62565b5050565b611b5c84848484604051602401611ada9493929190613f54565b6040516020818303038152906040527f5d1a971a000000000000000000000000000000000000000000000000000000007bffffffffffffffffffffffffffffffffffffffffffffffffffffffff19166020820180517bffffffffffffffffffffffffffffffffffffffffffffffffffffffff83818316178352505050506128e4565b50505050565b6001816000016000828254019250508190555050565b60007f01ffc9a7000000000000000000000000000000000000000000000000000000007bffffffffffffffffffffffffffffffffffffffffffffffffffffffff1916827bffffffffffffffffffffffffffffffffffffffffffffffffffffffff1916149050919050565b611beb8161290d565b611c2a576040517f08c379a0000000000000000000000000000000000000000000000000000000008152600401611c219061364d565b60405180910390fd5b50565b600033905090565b816004600083815260200190815260200160002060006101000a81548173ffffffffffffffffffffffffffffffffffffffff021916908373ffffffffffffffffffffffffffffffffffffffff160217905550808273ffffffffffffffffffffffffffffffffffffffff16611ca883610701565b73ffffffffffffffffffffffffffffffffffffffff167f8c5be1e5ebec7d5bd14f71427d1e84f3dd0314c0f7b2291e5b200ac8c7c3b92560405160405180910390a45050565b600080611cfa83610701565b90508073ffffffffffffffffffffffffffffffffffffffff168473ffffffffffffffffffffffffffffffffffffffff161480611d3c5750611d3b818561173f565b5b80611d7a57508373ffffffffffffffffffffffffffffffffffffffff16611d6284610524565b73ffffffffffffffffffffffffffffffffffffffff16145b91505092915050565b8273ffffffffffffffffffffffffffffffffffffffff16611da382610701565b73ffffffffffffffffffffffffffffffffffffffff1614611df9576040517f08c379a0000000000000000000000000000000000000000000000000000000008152600401611df090614020565b60405180910390fd5b600073ffffffffffffffffffffffffffffffffffffffff168273ffffffffffffffffffffffffffffffffffffffff1603611e68576040517f08c379a0000000000000000000000000000000000000000000000000000000008152600401611e5f906140b2565b60405180910390fd5b611e73838383612979565b611e7e600082611c35565b6001600360008573ffffffffffffffffffffffffffffffffffffffff1673ffffffffffffffffffffffffffffffffffffffff1681526020019081526020016000206000828254611ece9190613c73565b925050819055506001600360008473ffffffffffffffffffffffffffffffffffffffff1673ffffffffffffffffffffffffffffffffffffffff1681526020019081526020016000206000828254611f2591906140d2565b92505081905550816002600083815260200190815260200160002060006101000a81548173ffffffffffffffffffffffffffffffffffffffff021916908373ffffffffffffffffffffffffffffffffffffffff160217905550808273ffffffffffffffffffffffffffffffffffffffff168473ffffffffffffffffffffffffffffffffffffffff167fddf252ad1be2c89b69c2b068fc378daa952ba7f163c4a11628f55a4df523b3ef60405160405180910390a4611fe483838361297e565b505050565b8173ffffffffffffffffffffffffffffffffffffffff168373ffffffffffffffffffffffffffffffffffffffff1603612057576040517f08c379a000000000000000000000000000000000000000000000000000000000815260040161204e90614152565b60405180910390fd5b80600560008573ffffffffffffffffffffffffffffffffffffffff1673ffffffffffffffffffffffffffffffffffffffff16815260200190815260200160002060008473ffffffffffffffffffffffffffffffffffffffff1673ffffffffffffffffffffffffffffffffffffffff16815260200190815260200160002060006101000a81548160ff0219169083151502179055508173ffffffffffffffffffffffffffffffffffffffff168373ffffffffffffffffffffffffffffffffffffffff167f17307eab39ab6107e8899845ad3d59bd9653f200f220920489ca2b5937696c31836040516121489190612e15565b60405180910390a3505050565b612160848484611d83565b61216c84848484612983565b6121ab576040517f08c379a00000000000000000000000000000000000000000000000000000000081526004016121a2906141e4565b60405180910390fd5b50505050565b6060600082036121f8576040518060400160405280600181526020017f3000000000000000000000000000000000000000000000000000000000000000815250905061230c565b600082905060005b6000821461222a57808061221390614204565b915050600a82612223919061427b565b9150612200565b60008167ffffffffffffffff811115612246576122456131fd565b5b6040519080825280601f01601f1916602001820160405280156122785781602001600182028036833780820191505090505b5090505b60008514612305576001826122919190613c73565b9150600a856122a091906142ac565b60306122ac91906140d2565b60f81b8183815181106122c2576122c1613ca7565b5b60200101907effffffffffffffffffffffffffffffffffffffffffffffffffffffffffffff1916908160001a905350600a856122fe919061427b565b945061227c565b8093505050505b919050565b60606000825190506000810361233957604051806020016040528060008152509150506124a3565b6000600360028361234a91906140d2565b612354919061427b565b600461236091906142dd565b9050600060208261237191906140d2565b67ffffffffffffffff81111561238a576123896131fd565b5b6040519080825280601f01601f1916602001820160405280156123bc5781602001600182028036833780820191505090505b50905060006040518060600160405280604081526020016146fb604091399050600181016020830160005b868110156124605760038101905062ffffff818a015116603f8160121c168401518060081b905060ff603f83600c1c1686015116810190508060081b905060ff603f8360061c1686015116810190508060081b905060ff603f831686015116810190508060e01b905080845260048401935050506123e7565b50600386066001811461247a576002811461248a57612495565b613d3d60f01b6002830352612495565b603d60f81b60018303525b508484525050819450505050505b919050565b612544848484846040516024016124c2949392919061431f565b6040516020818303038152906040527ff45d7d2c000000000000000000000000000000000000000000000000000000007bffffffffffffffffffffffffffffffffffffffffffffffffffffffff19166020820180517bffffffffffffffffffffffffffffffffffffffffffffffffffffffff83818316178352505050506128e4565b50505050565b6125e483838360405160240161256293929190614372565b6040516020818303038152906040527f2ced7cef000000000000000000000000000000000000000000000000000000007bffffffffffffffffffffffffffffffffffffffffffffffffffffffff19166020820180517bffffffffffffffffffffffffffffffffffffffffffffffffffffffff83818316178352505050506128e4565b505050565b61267f816040516024016125fd9190612ec0565b6040516020818303038152906040527f41304fac000000000000000000000000000000000000000000000000000000007bffffffffffffffffffffffffffffffffffffffffffffffffffffffff19166020820180517bffffffffffffffffffffffffffffffffffffffffffffffffffffffff83818316178352505050506128e4565b50565b60006006600081548092919061269790614204565b91905055508142336006546040516020016126b493929190614427565b6040516020818303038152906040528051906020012060001c6126d791906142ac565b9050919050565b6127788383836040516024016126f693929190614464565b6040516020818303038152906040527f5821efa1000000000000000000000000000000000000000000000000000000007bffffffffffffffffffffffffffffffffffffffffffffffffffffffff19166020820180517bffffffffffffffffffffffffffffffffffffffffffffffffffffffff83818316178352505050506128e4565b505050565b61281582826040516024016127939291906144a9565b6040516020818303038152906040527f4b5c4277000000000000000000000000000000000000000000000000000000007bffffffffffffffffffffffffffffffffffffffffffffffffffffffff19166020820180517bffffffffffffffffffffffffffffffffffffffffffffffffffffffff83818316178352505050506128e4565b5050565b600081600001549050919050565b612841828260405180602001604052806000815250612b0a565b5050565b6128df83838360405160240161285d939291906144e0565b6040516020818303038152906040527fca47c4eb000000000000000000000000000000000000000000000000000000007bffffffffffffffffffffffffffffffffffffffffffffffffffffffff19166020820180517bffffffffffffffffffffffffffffffffffffffffffffffffffffffff83818316178352505050506128e4565b505050565b60008151905060006a636f6e736f6c652e6c6f679050602083016000808483855afa5050505050565b60008073ffffffffffffffffffffffffffffffffffffffff166002600084815260200190815260200160002060009054906101000a900473ffffffffffffffffffffffffffffffffffffffff1673ffffffffffffffffffffffffffffffffffffffff1614159050919050565b505050565b505050565b60006129a48473ffffffffffffffffffffffffffffffffffffffff16612b65565b15612afd578373ffffffffffffffffffffffffffffffffffffffff1663150b7a026129cd611c2d565b8786866040518563ffffffff1660e01b81526004016129ef9493929190614573565b6020604051808303816000875af1925050508015612a2b57506040513d601f19601f82011682018060405250810190612a2891906145d4565b60015b612aad573d8060008114612a5b576040519150601f19603f3d011682016040523d82523d6000602084013e612a60565b606091505b506000815103612aa5576040517f08c379a0000000000000000000000000000000000000000000000000000000008152600401612a9c906141e4565b60405180910390fd5b805181602001fd5b63150b7a0260e01b7bffffffffffffffffffffffffffffffffffffffffffffffffffffffff1916817bffffffffffffffffffffffffffffffffffffffffffffffffffffffff191614915050612b02565b600190505b949350505050565b612b148383612b88565b612b216000848484612983565b612b60576040517f08c379a0000000000000000000000000000000000000000000000000000000008152600401612b57906141e4565b60405180910390fd5b505050565b6000808273ffffffffffffffffffffffffffffffffffffffff163b119050919050565b600073ffffffffffffffffffffffffffffffffffffffff168273ffffffffffffffffffffffffffffffffffffffff1603612bf7576040517f08c379a0000000000000000000000000000000000000000000000000000000008152600401612bee9061464d565b60405180910390fd5b612c008161290d565b15612c40576040517f08c379a0000000000000000000000000000000000000000000000000000000008152600401612c37906146b9565b60405180910390fd5b612c4c60008383612979565b6001600360008473ffffffffffffffffffffffffffffffffffffffff1673ffffffffffffffffffffffffffffffffffffffff1681526020019081526020016000206000828254612c9c91906140d2565b92505081905550816002600083815260200190815260200160002060006101000a81548173ffffffffffffffffffffffffffffffffffffffff021916908373ffffffffffffffffffffffffffffffffffffffff160217905550808273ffffffffffffffffffffffffffffffffffffffff16600073ffffffffffffffffffffffffffffffffffffffff167fddf252ad1be2c89b69c2b068fc378daa952ba7f163c4a11628f55a4df523b3ef60405160405180910390a4612d5d6000838361297e565b5050565b6000604051905090565b600080fd5b600080fd5b60007fffffffff0000000000000000000000000000000000000000000000000000000082169050919050565b612daa81612d75565b8114612db557600080fd5b50565b600081359050612dc781612da1565b92915050565b600060208284031215612de357612de2612d6b565b5b6000612df184828501612db8565b91505092915050565b60008115159050919050565b612e0f81612dfa565b82525050565b6000602082019050612e2a6000830184612e06565b92915050565b600081519050919050565b600082825260208201905092915050565b60005b83811015612e6a578082015181840152602081019050612e4f565b60008484015250505050565b6000601f19601f8301169050919050565b6000612e9282612e30565b612e9c8185612e3b565b9350612eac818560208601612e4c565b612eb581612e76565b840191505092915050565b60006020820190508181036000830152612eda8184612e87565b905092915050565b6000819050919050565b612ef581612ee2565b8114612f0057600080fd5b50565b600081359050612f1281612eec565b92915050565b600060208284031215612f2e57612f2d612d6b565b5b6000612f3c84828501612f03565b91505092915050565b600073ffffffffffffffffffffffffffffffffffffffff82169050919050565b6000612f7082612f45565b9050919050565b612f8081612f65565b82525050565b6000602082019050612f9b6000830184612f77565b92915050565b612faa81612f65565b8114612fb557600080fd5b50565b600081359050612fc781612fa1565b92915050565b60008060408385031215612fe457612fe3612d6b565b5b6000612ff285828601612fb8565b925050602061300385828601612f03565b9150509250929050565b60008060006060848603121561302657613025612d6b565b5b600061303486828701612fb8565b935050602061304586828701612fb8565b925050604061305686828701612f03565b9150509250925092565b60006020828403121561307657613075612d6b565b5b600061308484828501612fb8565b91505092915050565b61309681612ee2565b82525050565b60006020820190506130b1600083018461308d565b92915050565b600060c0820190506130cc600083018961308d565b81810360208301526130de8188612e87565b905081810360408301526130f28187612e87565b9050613101606083018661308d565b61310e608083018561308d565b61311b60a083018461308d565b979650505050505050565b61312f81612dfa565b811461313a57600080fd5b50565b60008135905061314c81613126565b92915050565b6000806040838503121561316957613168612d6b565b5b600061317785828601612fb8565b92505060206131888582860161313d565b9150509250929050565b600060a08201905081810360008301526131ac8188612e87565b905081810360208301526131c08187612e87565b90506131cf604083018661308d565b6131dc606083018561308d565b6131e9608083018461308d565b9695505050505050565b600080fd5b600080fd5b7f4e487b7100000000000000000000000000000000000000000000000000000000600052604160045260246000fd5b61323582612e76565b810181811067ffffffffffffffff82111715613254576132536131fd565b5b80604052505050565b6000613267612d61565b9050613273828261322c565b919050565b600067ffffffffffffffff821115613293576132926131fd565b5b61329c82612e76565b9050602081019050919050565b82818337600083830152505050565b60006132cb6132c684613278565b61325d565b9050828152602081018484840111156132e7576132e66131f8565b5b6132f28482856132a9565b509392505050565b600082601f83011261330f5761330e6131f3565b5b813561331f8482602086016132b8565b91505092915050565b6000806000806080858703121561334257613341612d6b565b5b600061335087828801612fb8565b945050602061336187828801612fb8565b935050604061337287828801612f03565b925050606085013567ffffffffffffffff81111561339357613392612d70565b5b61339f878288016132fa565b91505092959194509250565b600080604083850312156133c2576133c1612d6b565b5b60006133d085828601612fb8565b92505060206133e185828601612fb8565b9150509250929050565b7f4e487b7100000000000000000000000000000000000000000000000000000000600052602260045260246000fd5b6000600282049050600182168061343257607f821691505b602082108103613445576134446133eb565b5b50919050565b7f4552433732313a20617070726f76616c20746f2063757272656e74206f776e6560008201527f7200000000000000000000000000000000000000000000000000000000000000602082015250565b60006134a7602183612e3b565b91506134b28261344b565b604082019050919050565b600060208201905081810360008301526134d68161349a565b9050919050565b7f4552433732313a20617070726f76652063616c6c6572206973206e6f7420746f60008201527f6b656e206f776e6572206e6f7220617070726f76656420666f7220616c6c0000602082015250565b6000613539603e83612e3b565b9150613544826134dd565b604082019050919050565b600060208201905081810360008301526135688161352c565b9050919050565b7f4552433732313a2063616c6c6572206973206e6f7420746f6b656e206f776e6560008201527f72206e6f7220617070726f766564000000000000000000000000000000000000602082015250565b60006135cb602e83612e3b565b91506135d68261356f565b604082019050919050565b600060208201905081810360008301526135fa816135be565b9050919050565b7f4552433732313a20696e76616c696420746f6b656e2049440000000000000000600082015250565b6000613637601883612e3b565b915061364282613601565b602082019050919050565b600060208201905081810360008301526136668161362a565b9050919050565b7f4552433732313a2061646472657373207a65726f206973206e6f74206120766160008201527f6c6964206f776e65720000000000000000000000000000000000000000000000602082015250565b60006136c9602983612e3b565b91506136d48261366d565b604082019050919050565b600060208201905081810360008301526136f8816136bc565b9050919050565b600081905092915050565b7f7b226e616d65223a202220000000000000000000000000000000000000000000600082015250565b6000613740600b836136ff565b915061374b8261370a565b600b82019050919050565b600061376182612e30565b61376b81856136ff565b935061377b818560208601612e4c565b80840191505092915050565b7f202d2d204e465420233a20000000000000000000000000000000000000000000600082015250565b60006137bd600b836136ff565b91506137c882613787565b600b82019050919050565b7f20222c20226465736372697074696f6e223a20225468697320697320616e204e60008201527f46542074686174206c6574732070656f706c6520706c617920696e207468652060208201527f67616d65204d657461766572736520536c6179657221222c2022696d6167652260408201527f3a20222000000000000000000000000000000000000000000000000000000000606082015250565b600061387b6064836136ff565b9150613886826137d3565b606482019050919050565b7f222c202261747472696275746573223a205b207b202274726169745f7479706560008201527f223a20224865616c746820506f696e7473222c202276616c7565223a20000000602082015250565b60006138ed603d836136ff565b91506138f882613891565b603d82019050919050565b7f2c20226d61785f76616c7565223a200000000000000000000000000000000000600082015250565b6000613939600f836136ff565b915061394482613903565b600f82019050919050565b7f7d2c207b202274726169745f74797065223a202241747461636b2044616d616760008201527f6522202c202276616c7565223a20000000000000000000000000000000000000602082015250565b60006139ab602e836136ff565b91506139b68261394f565b602e82019050919050565b7f7d205d7d00000000000000000000000000000000000000000000000000000000600082015250565b60006139f76004836136ff565b9150613a02826139c1565b600482019050919050565b6000613a1882613733565b9150613a248289613756565b9150613a2f826137b0565b9150613a3b8288613756565b9150613a468261386e565b9150613a528287613756565b9150613a5d826138e0565b9150613a698286613756565b9150613a748261392c565b9150613a808285613756565b9150613a8b8261399e565b9150613a978284613756565b9150613aa2826139ea565b9150819050979650505050505050565b7f646174613a6170706c69636174696f6e2f6a736f6e3b6261736536342c000000600082015250565b6000613ae8601d836136ff565b9150613af382613ab2565b601d82019050919050565b6000613b0982613adb565b9150613b158284613756565b915081905092915050565b7f4572726f723a20636861726163746572206d757374206861766520485020746f60008201527f2061747461636b20626f73732e00000000000000000000000000000000000000602082015250565b6000613b7c602d83612e3b565b9150613b8782613b20565b604082019050919050565b60006020820190508181036000830152613bab81613b6f565b9050919050565b7f4572726f723a20626f7373206d757374206861766520485020746f206174746160008201527f636b206368617261637465722e00000000000000000000000000000000000000602082015250565b6000613c0e602d83612e3b565b9150613c1982613bb2565b604082019050919050565b60006020820190508181036000830152613c3d81613c01565b9050919050565b7f4e487b7100000000000000000000000000000000000000000000000000000000600052601160045260246000fd5b6000613c7e82612ee2565b9150613c8983612ee2565b9250828203905081811115613ca157613ca0613c44565b5b92915050565b7f4e487b7100000000000000000000000000000000000000000000000000000000600052603260045260246000fd5b60008190508160005260206000209050919050565b60006020601f8301049050919050565b600082821b905092915050565b600060088302613d387fffffffffffffffffffffffffffffffffffffffffffffffffffffffffffffffff82613cfb565b613d428683613cfb565b95508019841693508086168417925050509392505050565b6000819050919050565b6000613d7f613d7a613d7584612ee2565b613d5a565b612ee2565b9050919050565b6000819050919050565b613d9983613d64565b613dad613da582613d86565b848454613d08565b825550505050565b600090565b613dc2613db5565b613dcd818484613d90565b505050565b5b81811015613df157613de6600082613dba565b600181019050613dd3565b5050565b601f821115613e3657613e0781613cd6565b613e1084613ceb565b81016020851015613e1f578190505b613e33613e2b85613ceb565b830182613dd2565b50505b505050565b600082821c905092915050565b6000613e5960001984600802613e3b565b1980831691505092915050565b6000613e728383613e48565b9150826002028217905092915050565b613e8b82612e30565b67ffffffffffffffff811115613ea457613ea36131fd565b5b613eae825461341a565b613eb9828285613df5565b600060209050601f831160018114613eec5760008415613eda578287015190505b613ee48582613e66565b865550613f4c565b601f198416613efa86613cd6565b60005b82811015613f2257848901518255600182019150602085019450602081019050613efd565b86831015613f3f5784890151613f3b601f891682613e48565b8355505b6001600288020188555050505b505050505050565b60006080820190508181036000830152613f6e8187612e87565b90508181036020830152613f828186612e87565b9050613f91604083018561308d565b8181036060830152613fa38184612e87565b905095945050505050565b7f4552433732313a207472616e736665722066726f6d20696e636f72726563742060008201527f6f776e6572000000000000000000000000000000000000000000000000000000602082015250565b600061400a602583612e3b565b915061401582613fae565b604082019050919050565b6000602082019050818103600083015261403981613ffd565b9050919050565b7f4552433732313a207472616e7366657220746f20746865207a65726f2061646460008201527f7265737300000000000000000000000000000000000000000000000000000000602082015250565b600061409c602483612e3b565b91506140a782614040565b604082019050919050565b600060208201905081810360008301526140cb8161408f565b9050919050565b60006140dd82612ee2565b91506140e883612ee2565b9250828201905080821115614100576140ff613c44565b5b92915050565b7f4552433732313a20617070726f766520746f2063616c6c657200000000000000600082015250565b600061413c601983612e3b565b915061414782614106565b602082019050919050565b6000602082019050818103600083015261416b8161412f565b9050919050565b7f4552433732313a207472616e7366657220746f206e6f6e20455243373231526560008201527f63656976657220696d706c656d656e7465720000000000000000000000000000602082015250565b60006141ce603283612e3b565b91506141d982614172565b604082019050919050565b600060208201905081810360008301526141fd816141c1565b9050919050565b600061420f82612ee2565b91507fffffffffffffffffffffffffffffffffffffffffffffffffffffffffffffffff820361424157614240613c44565b5b600182019050919050565b7f4e487b7100000000000000000000000000000000000000000000000000000000600052601260045260246000fd5b600061428682612ee2565b915061429183612ee2565b9250826142a1576142a061424c565b5b828204905092915050565b60006142b782612ee2565b91506142c283612ee2565b9250826142d2576142d161424c565b5b828206905092915050565b60006142e882612ee2565b91506142f383612ee2565b925082820261430181612ee2565b9150828204841483151761431857614317613c44565b5b5092915050565b600060808201905081810360008301526143398187612e87565b9050818103602083015261434d8186612e87565b905061435c604083018561308d565b614369606083018461308d565b95945050505050565b6000606082019050818103600083015261438c8186612e87565b905081810360208301526143a08185612e87565b905081810360408301526143b48184612e87565b9050949350505050565b6000819050919050565b6143d96143d482612ee2565b6143be565b82525050565b60008160601b9050919050565b60006143f7826143df565b9050919050565b6000614409826143ec565b9050919050565b61442161441c82612f65565b6143fe565b82525050565b600061443382866143c8565b6020820191506144438285614410565b60148201915061445382846143c8565b602082019150819050949350505050565b6000606082019050818103600083015261447e8186612e87565b905081810360208301526144928185612e87565b90506144a1604083018461308d565b949350505050565b600060408201905081810360008301526144c38185612e87565b905081810360208301526144d78184612e87565b90509392505050565b600060608201905081810360008301526144fa8186612e87565b9050614509602083018561308d565b614516604083018461308d565b949350505050565b600081519050919050565b600082825260208201905092915050565b60006145458261451e565b61454f8185614529565b935061455f818560208601612e4c565b61456881612e76565b840191505092915050565b60006080820190506145886000830187612f77565b6145956020830186612f77565b6145a2604083018561308d565b81810360608301526145b4818461453a565b905095945050505050565b6000815190506145ce81612da1565b92915050565b6000602082840312156145ea576145e9612d6b565b5b60006145f8848285016145bf565b91505092915050565b7f4552433732313a206d696e7420746f20746865207a65726f2061646472657373600082015250565b6000614637602083612e3b565b915061464282614601565b602082019050919050565b600060208201905081810360008301526146668161462a565b9050919050565b7f4552433732313a20746f6b656e20616c7265616479206d696e74656400000000600082015250565b60006146a3601c83612e3b565b91506146ae8261466d565b602082019050919050565b600060208201905081810360008301526146d281614696565b905091905056fe25732061747461636b656420626f73732e204e657720626f73732068703a2025734142434445464748494a4b4c4d4e4f505152535455565758595a6162636465666768696a6b6c6d6e6f707172737475767778797a303132333435363738392b2f4d696e746564204e465420772f20746f6b656e496420257320616e6420636861726163746572496e6465782025730a506c6179657220772f206368617261637465722025732061626f757420746f2061747461636b2e2048617320257320485020616e64202573204144a26469706673582212203c205401231e76d2cf4224d6f7d09019992af5d84878b0ba233c506b090a0c4564736f6c63430008110033446f6e6520696e697469616c697a696e6720257320772f2048502025732c20696d67202573446f6e6520696e697469616c697a696e6720626f737320257320772f2048502025732c20696d67202573",
  "linkReferences": {},
  "deployedLinkReferences": {}
}